:1000000002308A001E2A00000A108A100A11820794
:1000100028340C34013406342027C52620105224FD
:10002000201D2532AE126410A51220050D1000000F
:10003000A029E931E135EC346B10201D2532AE12D8
:100040006410A53143108A0620100000303084006F
:100050008313000803193A280130F800F701F70B61
:100060002F28F80B2E284A30F700F70B35283828B0
:10007000800B2C280800310EF039F7000F300605F0
:1000800077048600000006144528061008000608BC
:10009000F700060E0F39F80008000F30831606052A
:1000A00086000610861006118312861006110610AF
:1000B0000F30B00026200130AC002C08033C031C9C
:1000C00069280330B1003B200530B0002620AC0A7F
:1000D0005D280230B1003B200530B0002620AC0185
:1000E0002C08033C031CBB282C080420AD00AE01E7
:1000F0002D08AF0083160610861006118312861095
:100100000F3083160605F0388600831206150000AE
:100110000614000047207808B100061000000614FD
:10012000000047207808B00006100F30831606053F
:1001300086008312310EF700F030F705770830049F
:10014000F8007808B000B01B80282E1C86102E18EE
:10015000861400000611000006102F0EB0000F30AC
:10016000B0053008B1003B202F080F39B000B100B6
:100170003B20AC0A70288A110A12472A0130B000CD
:100180002620AA112A0883168700831287150800E3
:10019000AC01BE20AA112A0883168700831287119A
:1001A0001230B0002620AA112A0883168700831275
:1001B00087150930F700F70BDB28DE28AA152A0877
:1001C000831687008312AD018719AD0AAD080319A4
:1001D000EC280130AC0055291A30F700F70BEE2857
:1001E0000000AA152A08831687008312AD0187191B
:1001F000AD0AAD08031DFF280230AC0055291A30A6
:10020000F700F70B01290000AE012E08033C031C88
:100210004F2920302E07F800FA010318FA0A78084F
:10022000B0007A08B100B201B301B2013208073C54
:10023000031C4429AA152A08831687008312871DE8
:100240001A290930F700F70B23292629AA152A08AD
:10025000831687008312871D3B293208073CF8006C
:100260000130F700F808031939290310F70DF80BCE
:1002700035297708B304AA152A0883168700831244
:1002800087193B29B20A16293308F8003008840080
:1002900083133118831778088000AE0A0529AA1144
:1002A0002A0883168700831287158A110A12492AA1
:1002B0000B08AD008B13831603178C170C1400006A
:1002C000000003188B2983120C087F390313AE003A
:1002D00003170D080313AF0003170F080313B00033
:1002E0002E080C1E712999002F0803178D00031387
:1002F000300803178F0083168C170C1400000000C1
:1003000083120313AC0B85298829831603178B29C5
:10031000AB298316031783120C0D0E0D7F390313BF
:10032000AE0003170D080313AF0003170F080313E4
:10033000B0002E080C1E9A2999002F0803178D0073
:100340000313300803178F008D0A03198F0A031057
:100350000313AC0B5B29AD1B8B1708003308F801A6
:1003600032020318B6293208F700C229F701083013
:10037000B400B20DF70D330877020318F700F80D3B
:10038000B40BB929080020302D1E3030AE002C08E7
:10039000F700AC1FD329F709F70A7708AC002D3016
:1003A000AE00AD172D142C08B2006430B300AE219E
:1003B0007708AC0030307807AF002C08B2000A3064
:1003C000B300AE2130307707B10030307807B0008D
:1003D0002E08F70030302F020319F229AD14AD1B9F
:1003E0002D15062A2E08AF002030AE003030300226
:1003F0000319FE292D14AD1BAD14062A031D2D145F
:10040000031D062A2F08B0002030AF002D190D2A39
:10041000AD18112A2D18152A192A2E080C1E0E2A7D
:1004200099002F080C1E122A990030080C1E162A5B
:10043000990031080C1E1A2A99000800FF30AA0002
:10044000193083169900A6309800903083129800D6
:100450007B30AB0083161F149F141F159F110730AC
:100460009C0083131F308305091283129001003012
:10047000F80092000030831692001F149F141F157D
:100480009F1183121F10F03097059D054D28BE2047
:10049000C8280C3003178D0000308F0003100A307D
:1004A0000313AC0058212008AC001830AD00C32164
:1004B0002E300C1E592A99002108AC001830AD00CE
:1004C000C32120300C1E622A990025300C1E662A9A
:1004D0009900153003178D0000308F000310043091
:1004E0000313AC005821183003178D0000308F0023
:1004F00003100C300313AC0058212208AC00183054
:10050000AD00C3212E300C1E832A99002308AC00B5
:100510001830AD00C32120300C1E8C2A9900DF302A
:100520000C1E902A9900223003178D0000308F0096
:0E053000031006300313AC005821482A630064
:02400E00313F40
:00000001FF
;PIC16F877A
;CRC=21DE  CREATED="13-Ara-16 20:53"
